{
  "_format": "hh-sol-artifact-1",
  "contractName": "OpenAuction",
  "sourceName": "contracts/OpenAuction.sol",
  "abi": [
    {
      "inputs": [],
      "stateMutability": "nonpayable",
      "type": "constructor"
    },
    {
      "inputs": [],
      "name": "_auctionName",
      "outputs": [
        {
          "internalType": "string",
          "name": "",
          "type": "string"
        }
      ],
      "stateMutability": "view",
      "type": "function"
    },
    {
      "inputs": [],
      "name": "_highestBid",
      "outputs": [
        {
          "internalType": "uint256",
          "name": "",
          "type": "uint256"
        }
      ],
      "stateMutability": "view",
      "type": "function"
    },
    {
      "inputs": [],
      "name": "_minBidPrice",
      "outputs": [
        {
          "internalType": "uint256",
          "name": "",
          "type": "uint256"
        }
      ],
      "stateMutability": "view",
      "type": "function"
    },
    {
      "inputs": [],
      "name": "bid",
      "outputs": [],
      "stateMutability": "payable",
      "type": "function"
    },
    {
      "inputs": [],
      "name": "endAuction",
      "outputs": [],
      "stateMutability": "nonpayable",
      "type": "function"
    },
    {
      "inputs": [],
      "name": "isActive",
      "outputs": [
        {
          "internalType": "bool",
          "name": "",
          "type": "bool"
        }
      ],
      "stateMutability": "view",
      "type": "function"
    },
    {
      "inputs": [],
      "name": "owner",
      "outputs": [
        {
          "internalType": "address",
          "name": "",
          "type": "address"
        }
      ],
      "stateMutability": "view",
      "type": "function"
    },
    {
      "inputs": [],
      "name": "seeBidDetails",
      "outputs": [
        {
          "internalType": "string",
          "name": "",
          "type": "string"
        },
        {
          "internalType": "uint256",
          "name": "",
          "type": "uint256"
        }
      ],
      "stateMutability": "view",
      "type": "function"
    },
    {
      "inputs": [
        {
          "internalType": "string",
          "name": "auctionName",
          "type": "string"
        },
        {
          "internalType": "uint256",
          "name": "minBidPrice",
          "type": "uint256"
        }
      ],
      "name": "startAuction",
      "outputs": [],
      "stateMutability": "nonpayable",
      "type": "function"
    }
  ],
  "bytecode": "0x608060405234801561001057600080fd5b50336000806101000a81548173ffffffffffffffffffffffffffffffffffffffff021916908373ffffffffffffffffffffffffffffffffffffffff160217905550610da4806100606000396000f3fe6080604052600436106100865760003560e01c8063862882e511610059578063862882e5146101175780638da5cb5b14610140578063ad92b9641461016b578063c8a8e50e14610196578063fe67a54b146101c157610086565b80631998aeef1461008b57806322f3e2d4146100955780632f7e7301146100c0578063492eb44d146100eb575b600080fd5b6100936101d8565b005b3480156100a157600080fd5b506100aa61033d565b6040516100b79190610a49565b60405180910390f35b3480156100cc57600080fd5b506100d5610350565b6040516100e29190610af6565b60405180910390f35b3480156100f757600080fd5b50610100610356565b60405161010e929190610a86565b60405180910390f35b34801561012357600080fd5b5061013e6004803603810190610139919061092e565b61051e565b005b34801561014c57600080fd5b506101556105b3565b6040516101629190610a2e565b60405180910390f35b34801561017757600080fd5b506101806105d7565b60405161018d9190610af6565b60405180910390f35b3480156101a257600080fd5b506101ab6105dd565b6040516101b89190610a64565b60405180910390f35b3480156101cd57600080fd5b506101d661066b565b005b60011515600460009054906101000a900460ff1615151461022e576040517f08c379a000000000000000000000000000000000000000000000000000000000815260040161022590610ad6565b60405180910390fd5b600034905060025481101561024257600080fd5b600354811015610287576040517f08c379a000000000000000000000000000000000000000000000000000000000815260040161027e90610ab6565b60405180910390fd5b600460019054906101000a900473ffffffffffffffffffffffffffffffffffffffff1673ffffffffffffffffffffffffffffffffffffffff166108fc6003549081150290604051600060405180830381858888f193505050501580156102f1573d6000803e3d6000fd5b5033600460016101000a81548173ffffffffffffffffffffffffffffffffffffffff021916908373ffffffffffffffffffffffffffffffffffffffff1602179055508060038190555050565b600460009054906101000a900460ff1681565b60025481565b60606000606060011515600460009054906101000a900460ff16151514156103b5576040518060400160405280601281526020017f41756374696f6e20636f6e74696e7565732e000000000000000000000000000081525090506103ee565b6040518060400160405280600e81526020017f41756374696f6e20656e6465642e00000000000000000000000000000000000081525090505b610484600180546103fe90610c0d565b80601f016020809104026020016040519081016040528092919081815260200182805461042a90610c0d565b80156104775780601f1061044c57610100808354040283529160200191610477565b820191906000526020600020905b81548152906001019060200180831161045a57829003601f168201915b5050505050600254610749565b600160025481805461049590610c0d565b80601f01602080910402602001604051908101604052809291908181526020018280546104c190610c0d565b801561050e5780601f106104e35761010080835404028352916020019161050e565b820191906000526020600020905b8154815290600101906020018083116104f157829003601f168201915b5050505050915092509250509091565b60008054906101000a900473ffffffffffffffffffffffffffffffffffffffff1673ffffffffffffffffffffffffffffffffffffffff163373ffffffffffffffffffffffffffffffffffffffff161461057657600080fd5b6001600460006101000a81548160ff0219169083151502179055508060028190555081600190805190602001906105ae92919061080e565b505050565b60008054906101000a900473ffffffffffffffffffffffffffffffffffffffff1681565b60035481565b600180546105ea90610c0d565b80601f016020809104026020016040519081016040528092919081815260200182805461061690610c0d565b80156106635780601f1061063857610100808354040283529160200191610663565b820191906000526020600020905b81548152906001019060200180831161064657829003601f168201915b505050505081565b60008054906101000a900473ffffffffffffffffffffffffffffffffffffffff1673ffffffffffffffffffffffffffffffffffffffff163373ffffffffffffffffffffffffffffffffffffffff16146106c357600080fd5b60008054906101000a900473ffffffffffffffffffffffffffffffffffffffff1673ffffffffffffffffffffffffffffffffffffffff166108fc6003549081150290604051600060405180830381858888f1935050505015801561072b573d6000803e3d6000fd5b506000600460006101000a81548160ff021916908315150217905550565b6107e1828260405160240161075f929190610a86565b6040516020818303038152906040527f9710a9d0000000000000000000000000000000000000000000000000000000007bffffffffffffffffffffffffffffffffffffffffffffffffffffffff19166020820180517bffffffffffffffffffffffffffffffffffffffffffffffffffffffff83818316178352505050506107e5565b5050565b60008151905060006a636f6e736f6c652e6c6f679050602083016000808483855afa5050505050565b82805461081a90610c0d565b90600052602060002090601f01602090048101928261083c5760008555610883565b82601f1061085557805160ff1916838001178555610883565b82800160010185558215610883579182015b82811115610882578251825591602001919060010190610867565b5b5090506108909190610894565b5090565b5b808211156108ad576000816000905550600101610895565b5090565b60006108c46108bf84610b36565b610b11565b9050828152602081018484840111156108dc57600080fd5b6108e7848285610bcb565b509392505050565b600082601f83011261090057600080fd5b81356109108482602086016108b1565b91505092915050565b60008135905061092881610d57565b92915050565b6000806040838503121561094157600080fd5b600083013567ffffffffffffffff81111561095b57600080fd5b610967858286016108ef565b925050602061097885828601610919565b9150509250929050565b61098b81610b83565b82525050565b61099a81610b95565b82525050565b60006109ab82610b67565b6109b58185610b72565b93506109c5818560208601610bda565b6109ce81610cce565b840191505092915050565b60006109e6603283610b72565b91506109f182610cdf565b604082019050919050565b6000610a09602083610b72565b9150610a1482610d2e565b602082019050919050565b610a2881610bc1565b82525050565b6000602082019050610a436000830184610982565b92915050565b6000602082019050610a5e6000830184610991565b92915050565b60006020820190508181036000830152610a7e81846109a0565b905092915050565b60006040820190508181036000830152610aa081856109a0565b9050610aaf6020830184610a1f565b9392505050565b60006020820190508181036000830152610acf816109d9565b9050919050565b60006020820190508181036000830152610aef816109fc565b9050919050565b6000602082019050610b0b6000830184610a1f565b92915050565b6000610b1b610b2c565b9050610b278282610c3f565b919050565b6000604051905090565b600067ffffffffffffffff821115610b5157610b50610c9f565b5b610b5a82610cce565b9050602081019050919050565b600081519050919050565b600082825260208201905092915050565b6000610b8e82610ba1565b9050919050565b60008115159050919050565b600073ffffffffffffffffffffffffffffffffffffffff82169050919050565b6000819050919050565b82818337600083830152505050565b60005b83811015610bf8578082015181840152602081019050610bdd565b83811115610c07576000848401525b50505050565b60006002820490506001821680610c2557607f821691505b60208210811415610c3957610c38610c70565b5b50919050565b610c4882610cce565b810181811067ffffffffffffffff82111715610c6757610c66610c9f565b5b80604052505050565b7f4e487b7100000000000000000000000000000000000000000000000000000000600052602260045260246000fd5b7f4e487b7100000000000000000000000000000000000000000000000000000000600052604160045260246000fd5b6000601f19601f8301169050919050565b7f426964207072696365206973206e6f7420626967676572207468616e2074686560008201527f2068696768657374206269642070726963650000000000000000000000000000602082015250565b7f41756374696f6e206973206e6f7420617661696c61626c6520616e796d6f7265600082015250565b610d6081610bc1565b8114610d6b57600080fd5b5056fea264697066735822122022131b5497e9fd852e825b9e60d1ce57e8d426912a42facc8759a1649a97d73364736f6c63430008040033",
  "linkReferences": {},
  "deployedLinkReferences": {}
}